S02B0000626F6F746C6F616465722D73746F726167652D696E7465726E616C2D73696E676C652D3531326B2EF0
S113000000800020A10000009D000000F10000001D
S11300109D0000009D0000009D0000009D00000068
S11300209D0000009D000000903000009D00000035
S11300309D000000C43000009D0000009D000000F1
S113004010B5054C237833B9044B13B1044800E0D0
S113005000BF0123237010BD080100200000000030
S11300605833000008B5034B1BB10349034800E0B3
S113007000BF08BD000000000C0100205833000040
S1130080044B054A9A60D3F8882042F47002C3F8FE
S11300908820704700ED00E000000000FEE700004B
S11300A008B5FFF7EDFF00F071F80A4A0A4B0B4957
S11300B08B4206D300210A4B0A4A934206D300F02E
S11300C01BF852F8040F43F8040BF1E743F8041B40
S11300D0F3E700BF583300000001002008010020AE
S11300E0080100203001002000F08ABB00F0E0BBD2
S11300F04FF4017002F04AB9204B13B51B68C3F3E7
S11301000743012B10D11E4B4FF48022596E41F24C
S1130110640049034FF0040458BF42F264011A50CA
S11301201848046058BF5A504FF040234FF40062FF
S11301301A67D3F88420D206FBD4FFF7D5FF02F068
S11301401EF901F004FC30B940F2012002F01EF95E
S11301504FF401700AE00C4B0193019B002B0ADC65
S113016040F205439842F3D140F2032002F00EF925
S1130170002002B010BD019B013BEDE70080E00FC1
S1130180008000402020014000350C0008B54FF0ED
S11301904023D3F894305B060BD4012346F20402C7
S11301A01268013214D1BDE808404FF4027002F025
S11301B0DFB802F003F9A0F2022080B20728ECD8DD
S11301C0012303FA00F010F0C90F18BF0023E5E77C
S11301D093B14FF4C04001F0F9FF0028E3D04FF48D
S11301E0C043064A93601846016881F3088881F386
S11301F0098840688746FEE708BD00BF00ED00E0BF
S11302000120704730B541F264030825094C0144CC
S1130210E55001240025084B5C609D601A611A4674
S1130220DC60884201D1586A30BD10F8014B146279
S1130230F7E700BF0080004000800840F8B51D4685
S11302400F4641F268034FF400511646114A044622
S1130250D150022302F59352136001F088F8DDE9CE
S11302600612204601F089F8002384F8387063628E
S113027032682B0CC4F839207268C4F83D20B26887
S113028084F845302B0AC4F8412084F8463084F8B9
S11302904750F8BD0080004030B51D4685B000F1E0
S11302A02803CDE90112009300F1240200F1380380
S11302B0294601F0BEF805B030BD00002DE9F0413B
S11302C0B0B0369C0646002867D0002965D0002AC5
S11302D063D0002B61D0002C5FD041F268004FF452
S11302E000572F4D01F120082F5003252D4820AF32
S11302F0056000200D46BE4609900C900F90F44610
S1130300286869680835ACE803004545E646F6D137
S11303100DF1A00C02F1200E6546106851680832F8
S113032003C57245AC46F7D10DF1400C654603F1A7
S1130330200E2A4618685968083303C273451546C7
S1130340F7D1234618AC03F12005224618685968F2
S1130350083303C2AB421446F7D140230893CDE9D6
S11303600A7320230AAA0E9303AB07CACDF81CC054
S11303700D9683E8070007AB93E807008DE80700B4
S11303800DAB0ECB084800F025FE002840F20460B7
S113039008BF002030B0BDE8F08140F20160F9E709
S11303A000800040609200403C3200004FF4005155
S11303B041F26802074B10B599500222044603F536
S11303C093531A6001F006FA2046BDE8104000215C
S11303D001F02ABA0080004001F030BA014601F071
S11303E02FBA000070B50D4C0D4E0E4DF36913EA93
S11303F0050208D00C4A1A40002A14BF6FF001000D
S11304004FF0FF3070BD03408B4204D0013CEDD16E
S11304106FF00200F6E71046F4E700BF80969800FC
S113042000000340060001000200010070B5134CF7
S11304306061E06943071DD40E1D0968151FA161A1
S11304405DB90423294623612120FFF7CBFF58B966
S1130450BDE870402120FFF7C5BF08210846FFF71B
S1130460C1FF10B10423236170BD56F8043B043D61
S1130470A361E5E74FF0FF30F6E700BF000003405B
S113048038B541F671330E4C0122E569E36341F25C
S11304900C03E2500223606100212361212005F452
S11304A08035FFF79FFF18B901462120FFF79AFF17
S11304B042F20C030122E2500DB10023E36338BD84
S11304C0000003402DE9F843154641F67132164BFE
S11304D08846DF690121DA6341F20C020646DFF83F
S11304E04C9007F48037995055B9284642F20C02D3
S11304F001210D4B99500FB10022DA63BDE8F88356
S113050006F5005404EA0904A41BAC4228BF2C4697
S1130510414622463046FFF789FF0028E6D12644AB
S1130520A0442D1BE0E700BF0000034000E0FFFFF4
S1130530C369032B9FBF00EB83020133D160C36106
S113054070470000C1692DE9F043042962D84FF4D3
S1130550803441F26403304A304D566E304FD450EB
S1130560304BC5F80036C5F80476F5035CBF42F29B
S1130570640554512C4A2D4D1A60024652F80C4B16
S11305805C600024A14221D1234600226FF0030CB9
S1130590406808BB234942EA04628A600A684868E2
S11305A0896842404A409B002049581981422DD114
S11305B0EA50BFF34F8F1E491E4BCA6802F4E06233
S11305C01343CB60BFF34F8F00BFFDE752F8043BEA
S11305D045F824300134D5E7114606689F1A0CFB10
S11305E0026605EB8707A3EB0209D0F80880A1EBAC
S11305F0020EF04509EB010302D840680A46C8E739
S113060056F8213047F821300131EEE751F8044B18
S11306106240CBE7BDE8F0830080004000C00740A3
S1130620004E00A0004C00A0DEC0ECE50C4C00A085
S113063000ED00E00400FA05154B4FF48032586ECB
S113064041F26401C00358BF42F2640010B55A502D
S11306501049D1F8041658BF1A500A680E4B9A4232
S113066013D10B690533B3F5007F0ED20022144673
S11306709A4205D351F82300031B5842584110BD38
S113068051F8220001324440F2E70020F7E700BFAE
S11306900080004000C00740DEC0ECE538B50F4BD9
S11306A04FF48032596E044641F26400C90358BFC6
S11306B042F264011A500A48D0F8045658BF5A50FE
S11306C034B1FFF7B9FF30B100206B68236038BD47
S11306D04FF4E020FBE74FF42020F8E700800040CF
S11306E000C007400B4B4FF48032596E41F2640056
S11306F0C90358BF42F2640110B51A500648D0F835
S1130700044658BF5A50FFF797FF10B1A068C0F3D2
S1130710C05010BD0080004000C007400C4B4FF497
S11307208032596E41F26400C90358BF42F2640139
S113073010B51A500748D0F8044658BF5A50FFF76E
S1130740D1FF08B1E06810BD4FF42020FBE700BFE3
S11307500080004000C00740F8B5254B4FF48032BC
S1130760596E41F26404C90358BF42F264011A513C
S1130770204CD4F8045658BF5A508468FFF7B2FF8F
S113078060B32A6905F1140151F82230DB4341F8C2
S11307902230A86810F4702011D0A86800F47020EA
S11307A0F8BD00232768A56801EB800CC5F3990503
S11307B0AB4200EB03060DD0964205D3304684B11C
S11307C09042EED30020EBE75CF8236047F8236007
S11307D00133EDE7646824F00104EFE74FF42020CF
S11307E0DEE7904234BF4FF4E0200020D8E700BF9A
S11307F00080004000C007400048704704310000FA
S113080041F268034FF40031014A0020D15070478F
S113081000800040024BD86900F00100704700BF1F
S11308200000034008B5034608469918B1F5002FA7
S113083004D8194602F003FC002008BD40F202402F
S1130840FBE78318B3F5002F10B50ED940F2024030
S113085010BDC45801340AD104339A42F9D801F0C6
S113086077FB0028F2D00020F2E70023F5E740F2FE
S11308700340EDE738B541EA0003C3F30C03044633
S11308809BB90D18B5F5002F08D8204604F500547F
S113089001F04EFBA54204D00028F6D140F20240FC
S11308A038BD0028FAD00020FAE740F20440F7E708
S11308B042F268034FF40031014A0020D1507047DE
S11308C00080004013B5044622B10024009400F0D7
S11308D057F90446204602B010BD000030B501B1FE
S11308E00139074CE568ED03FCD4120743F00043DB
S11308F002F080521843024342EA0121616030BD94
S11309000020024CF0B58DB005AC84E80700069DCC
S11309101E469D4228BF1D46129815B30BB30027EF
S113092000F5181000F241104402CDE90A37631BA8
S113093009930CAB43F8185D029593E803008DE826
S113094003000CAA059B12E9070000F0BFFCAE42AD
S113095007D93946721BA01B0DB0BDE8F04000F06A
S1130960B3BC0DB0F0BD30B51D4691B001AC84E808
S113097007000146DDE90223D8004ABF03326A00BA
S113098022F0030204A8FFF79DFF04A800F00EF96B
S113099014992A4601F5181101F241114C02611B08
S11309A0002308A8FFF78EFF04F5007100232A46F0
S11309B0491B0CA8FFF786FF0CA800F0F7F808A95C
S11309C004A800F0CDF811B030BD10B58CB005AC62
S11309D084E807000E9A029302F5181202F5A07239
S11309E05202CDE90923002206AB93E803008DE807
S11309F003000B920CAA059B12E9070000F066FCA9
S1130A000CB010BD0122054B9A60DA68D203FCD405
S1130A10D86820F00F000004000C70470020024C3E
S1130A202DE9F04B4FF000088AB003AC84E80700CE
S1130A3081461C464646059F07AD07F0805B049B34
S1130A40434502D80AB0BDE8F08B139B13B9B31E1B
S1130A50012B0AD9129BCDE90794099700965BB143
S1130A6095E807002346FFF74DFFBBF1000F00D1C7
S1130A70A1440136A044E2E7234695E80700FFF7C6
S1130A80A4FFF2E782B01FB504AC04E907000A9A98
S1130A90029907938A4228BF0A46039B0798D90004
S1130AA044BF033222F0030222F070410D4A03F0E6
S1130AB0E0431060099A0C4802F0E04242F0005210
S1130AC00A430260002243F00053019C0B43074990
S1130AD0426084600B60064B1A6004B0BDE81040AD
S1130AE002B070470000024C0800024C1800024C8F
S1130AF03400024C3F22044B1A60102243F8142C99
S1130B0003229A60704700BF3000024C024A136807
S1130B109B07FCD4704700BF3C00024C034B1B688E
S1130B2013F0240F14BF0420002070472800024C47
S1130B3008B5FFF7F3FF084B1B6823F47F4323F04A
S1130B40EF03002B14BF0423002303431EBF012221
S1130B50024B1A6008BD00BF3C00024CFCFFFF3F83
S1130B60032208B5054B186019615A63FFF7C2FFE9
S1130B70FFF7CCFFBDE80840FFF7DABF0000024CE6
S1130B8010B522F0704200F11004C0E90014826034
S1130B9041B1826803F0704313438360029BC360D6
S1130BA0204610BD836843F08043F6E70123436089
S1130BB0C36843F02003C360836843F00053836039
S1130BC07047C368DB0658BFC368C36803F00F03EC
S1130BD0042B0ED8012202FA03F313F01A0F08D0E3
S1130BE0C36801F01F0143EA0123C3608368194409
S1130BF081607047426810B5182A034609D0202A3C
S1130C001BD0102A28D1154A1268D40109D4012016
S1130C1012E0124A12689001F9D50A6842F00802FB
S1130C200A600F481A6882424FF000000DD10A682A
S1130C3042F040020A60586010BD084A126852012E
S1130C40E5D50A6842F00402EAE7064CA242F3D171
S1130C500A6842F08002EDE70720EDE70404024C45
S1130C602D0100202C01002007B50B460749096817
S1130C70C90708D5002100920246084600F03EF953
S1130C8003B05DF804FB0120FAE700BF0404024C42
S1130C9007B50B4607490968C90708D50092012121
S1130CA00246002000F02AF903B05DF804FB01209D
S1130CB0FAE700BF0404024C1FB5094C246864071A
S1130CC00CD5CDE900120021069C0222CDE90234A4
S1130CD00346084600F03EF904B010BD0120FBE7CE
S1130CE00404024C37B515464A6804463AB18C6888
S1130CF00093096845EA0403FFF742FF04462046CF
S1130D0003B030BD2DE9F04FD5B005AC814621606C
S1130D10049304210023B9F1010FCDE9071307CA95
S1130D2009AB609E639F649D069483E8070000F00E
S1130D30D88005D3B9F1020F00F0D8800724CCE0A5
S1130D4021461846FFF756FF0446002840F0C580A8
S1130D505F9A0CAB07CA83E80700619B629A494219
S1130D6052685B6801F00F08002113445B4203F0F2
S1130D700F0302937B684FF0100A5B420393B3683E
S1130D800F91DA0048BF7368029A42BF033323F01D
S1130D9003037360AB68DB0041BF6B68033323F06C
S1130DA003036B60619B5B680193629BD3F804B09F
S1130DB0019B5B441344CDE91031736852465B4296
S1130DC003F00F03CDE912136B6814915B4203F037
S1130DD00F03CDE9151318AB1846179102F03AF931
S1130DE05F9A52685AB97A684AB9019A3AB9BBF11A
S1130DF0000F04D1D046CDE90C0ACDF838B03E4BF3
S1130E004FF0005253F8299006A949F0100334A872
S1130E10FFF768FF49F401634FF0005209A9FFF797
S1130E2061FF49F4205343F010034FF000525E99E0
S1130E30FFF758FF49F4904343F010034FF000527A
S1130E40049949F0400AFFF74DFF53460022619987
S1130E50FFF748FF029B4FF000524AEA03236299CE
S1130E60FFF740FF49EA08234FF000520CA9FFF7AF
S1130E7039FF039B4FF000521B0203F4706343EAF3
S1130E8009033946FFF72EFF1038FFF78FFE0023C2
S1130E900FA91A461CA8FFF725FF002331461A465E
S1130EA0FFF720FF002312A91A46FFF71BFF0023B8
S1130EB029461A46FFF716FF002315A91A46FFF71D
S1130EC011FF002365991A46FFF70CFF1038FFF74E
S1130ED06DFE1CA934A8FFF743FE204655B0BDE8BB
S1130EE0F08F2146184602F0D0E82DE72146184637
S1130EF002F0C6E828E700BF44310000F0B594468C
S1130F005A688DB01C4613070646129D1BD1D2B1F8
S1130F106B689A4217D10D4B0D4A53F8217009ABF7
S1130F2007CA83E80700CDE90633CDE90433CDE9E8
S1130F300253CDE90034624647F480713046FFF72E
S1130F40E1FE0DB0F0BD0720FBE700BF74310000E7
S1130F50383100002DE9F0438DB09846DDE914677F
S1130F60DDE9165973688446180728D13BB37868BD
S1130F70834224D16B68102B21D1D9F80430102B73
S1130F801DD1104B53F821E00F4B53F822400F4A68
S1130F9009AB07CA83E8070044F03001CDE90639FC
S1130FA0CDE90433CDE90273CDE90056424641EA66
S1130FB00E016046FFF7A6FE0DB0BDE8F0830720E2
S1130FC0FAE700BF743100005031000038310000EE
S1130FD00069704770B586B003AD064685E80E001B
S1130FE0FFF7F6FF442804463AD8726800EB800302
S1130FF09A4203D0062343439A4233D10B9BB3EB6B
S1131000440F2FD10E9A93422CD1F368012221462A
S11310103120FFF763FC96E807000123CDE9003394
S11310202346FFF7FDFC08230AAA009307CA2346B8
S1131030FFF799FC0C23009395E807002346FFF77C
S113104061FC0A230DAA009307CA2346FFF78BFC11
S1131050FFF7D8FC002814BF0320002006B070BDA1
S11310600120FBE70720F9E70138C0B206289ABF40
S1131070014B185C00207047503200000138C0B2A8
S113108006289ABF014B185C0020704757320000B5
S11310900138C0B206289ABF014B185C0020704783
S11310A05E3200002DE9F04F8146BBB003A880E812
S11310B00E0009F1FF339DF810A1049F0D46DDF8E1
S11310C01480062B00F2E480DFE803F0041E242AD7
S11310D030363C006F4B1B68D80703D401203BB06B
S11310E0BDE8F08F012307930023BAF1010FCDE986
S11310F008332DD0BAF1020F00F093804846FFF771
S1131100C7FF6324064630E0624B1B689907E5D5A8
S11311100223E8E75F4B1B685A07DFD50423E2E7A5
S11311205C4B1B681B07D9D50823DCE7594B1B68AC
S1131130DE06D3D51023D6E7564B1B689C06CDD5C7
S11311402023D0E7534B1B685806C7D54023CAE772
S1131150504B1B68D903C1D5079B484643F4C06371
S11311600793FFF781FF0324064613230422009309
S113117007A94FF0005312A8FFF702FD48F00053EF
S1131180009429463A46FFF7FBFC4FF00C0B05464A
S11311900024DDF81481469B0BFB038BD8455ED1FC
S11311A0BAF1030F0BD14846FFF772FF02464846D7
S11311B0FFF764FFBA426BD10138204268D1002C9A
S11311C05ED10323224600932846234608A9FFF74D
S11311D0D7FC04240546103D2846FFF7E7FC2146CA
S11311E02846FFF7EEFC489AB24228BF324614461E
S11311F0002A4BD00023479900930AA8499BFFF784
S1131200BFFC321B04D0002300931946FFF7B8FC3F
S11312101038FFF7CBFC12A80AA9FFF7A1FC0020A5
S11312205DE71C4B1A6892037FF558AF1B68DB031C
S11312307FF554AF77B17C4204F00304079B484622
S113124043F4E0630793FFF70FFF240244F0A30481
S113125006468AE7B846042708AD3C46EEE7D8F8C8
S1131260042014444AB1032300932846D8F80830D4
S1131270D8F80010FFF784FC054608F10C088DE748
S113128014F0030418BFC4F10404A4E70AA8B8E7DF
S1131290072024E70C04024C70B58AB007AC84E83C
S11312A00E0003AD064694E8070085E80B00012311
S11312B002930EAB01930323009394E80E0030468F
S11312C0FFF7F0FE0AB070BD01F0C4BE82B02DE994
S11312D0F0418AB005AD85E807001193079B149C83
S11312E05B0036D4DDF81880139B444528BF444680
S11312F013F08053129A02D1944228BF144644B387
S11313000F2C14D9029412AB93E803008DE8030068
S1131310119B95E80700FFF7B5FBFFF7EBFBFFF721
S1131320F5FB0AB0BDE8F04102B0FFF701BC059E31
S1131330119F9BB10025A8EB0502042A3B6828BF36
S11313400422701909A90435099301F078FEAC420E
S1131350F1D80AB0BDE8F04102B0704722463946E0
S113136030460AB0BDE8F04102B001F068BE18B1E1
S11313702422002101F06EBE704770B50E4615465A
S11313800446A0B199B12422002101F063FE25F0A6
S11313904003802B02D0B5F5807F0BD12046EA08AC
S11313A040F8045B314601F04AFE002070BD6FF046
S11313B02100FBE76FF01F00F8E730B501298BB07F
S11313C00CBF0125022570B36AB363B3016821F031
S11313D04004802C02D0B1F5807F27D1C908029146
S11313E00021CDE90312102204300190CDE905213A
S11313F0CDE90732099100F0B9F8044668B9012D26
S113140007AA04A901A80BD1FFF72EFC054600F09A
S1131410C3F8002D18BF6FF0240420460BB030BD74
S1131420FFF736FCF2E76FF02104F6E76FF01F04D4
S1131430F3E72DE9F04F91B083468A469846DDF8EC
S11314406C901646002A30D01568BBF1000F00F0EE
S11314508180B9F1000F7DD01C9B002B7AD0B8F1AC
S1131460000F77D01A9B002B74D0DBF8003023F0E8
S11314704002802A02D0B3F5807F6ED1DB080024BD
S113148005931023CDE906480BF10402CDE9083495
S113149009EB0A0304920293544508D3002E62D048
S11314A00020356011B0BDE8F08F1546CDE75DB181
S11314B01A9A19F80430525D013553401C9A05F00C
S11314C00F0513550134E7E7AAEB04070F2F1CD9C6
S11314D027F00F0709EB0403CDE90A371C9B0C9591
S11314E02344CDE90D370F9500F040F80028D9D1F9
S11314F007AB00930DAA0AA904A8FFF7DDFB03902C
S113150000F04AF8039B5BBB3C441C9B09EB0407BB
S11315101C44029BBB4201D15446BDE77DB94246FF
S11315201A9B01215846FFF748FF08F1100212F8F0
S1131530013D0133DBB213700BB99045F7D11A9A10
S113154017F8013B525D0135534004F8013B05F0A7
S11315500F05DEE76FF02100A4E76FF01F00A1E79D
S11315606FF024009EE730469CE70000094B002002
S11315709A6E42F400529A66D3F8602242F0010255
S1131580C3F86022D3F8602242F00202C3F860225A
S1131590704700BF00800040094B00209A6E22F47F
S11315A000529A66D3F8602222F00102C3F8602246
S11315B0D3F8602222F00202C3F86022704700BF11
S11315C0008000402DE9F04101289AB01F46209B7D
S11315D031D003D3022834D01E4D28E014244FF018
S11315E002089B01059300250AAE04923046224668
S11315F0069501F024FD09950796FFF7B7FF054608
S1131600A8B904AB93E807008DE80700089407AB7A
S113161040460ECBFFF740FE8046FFF7BDFFB8F112
S1131620000F14D122463146384601F008FD284601
S11316301AB0BDE8F0819B01059320244FF0030804
S1131640D1E79B01059320244FF00408CBE7024D1A
S1131650EDE700BF80AFFFFF80ADFFFF2DE9F3474B
S113166002281446DDE90A9280460E461F464ED8EB
S11316701CB9002002B0BDE8F08713683F2B42D8A4
S1131680516809B1002F3ED1B8F1010F3DD0224D70
S11316902249B8F1020F18BF0D4603F03F00E318CA
S11316A0136022BF53680133536090B3C0F1400A02
S11316B0544522D331465246484401F0C0FC01232C
S11316C04A46009329463B464046A4EB0A04FFF7EA
S11316D079FF3F2C56440DD93D46A3090093324669
S11316E03B4629464046FFF76DFF24F03F031E4466
S11316F004F03F04002CBCD000202246314648446C
S113170001F09DFCB5E73D46C7E7054DC5E7054833
S1131710B0E73F2CF1D9E0E7A532000065320000C4
S11317208532000080AFFFFF2DE9F041012886B02B
S113173004460E4690461D4604D045D3022841D0A7
S113174022483CE01C272A68CDE90085D3008DF8A7
S11317500F3053098DF80E30530B8DF80D30530DA7
S11317608DF80C306B682046D90001EB52718DF86E
S11317700B1002F03F025909372A8DF80A104FEA7C
S113178053314FEA535394BFC2F13802C2F1780285
S11317908DF809108DF808300D493346FFF75EFFC8
S11317A0082233460DEB0201CDE900852046FFF700
S11317B055FF3A4631460C9801F041FC002006B032
S11317C0BDE8F0812027BEE71427BCE780AFFFFF08
S11317D0C532000018B16C22002101F03BBC7047F7
S11317E007B590F868300190002B00F128030093AE
S11317F000F1080314BF01200220FFF72FFF03B0FC
S11318005DF804FB07B590F868200346002A0091B0
S113181000F1280200F1080114BF01200220FFF7A3
S113182083FF03B05DF804FB00239942D4BF002179
S11318300121C0E9003380F868107047FFF7D0BF7A
S1131840FFF7E0BF00207047002070470120704779
S113185001207047002070470020704728231B6830
S1131860186970472823186870474FF40040704780
S11318700120704710B5ADF50C7D4FF4037209A932
S1131880002000F087F940F20124002109A800F0AB
S1131890C4F8A042F9D040F20323984204D040F2A5
S11318A005400DF50C7D10BD9DF8243003F00302B6
S11318B0022AF4D003F00502042AF0D059070DD40B
S11318C09DF824309A072CD4DB07E8D50C99889826
S11318D000F0D6F90028E2D00020E2E7139800F0E7
S11318E0E5FC0028ECD0FEF719FF164B044698429D
S11318F00BD11C22002102A801F0ACFB01A8019429
S1131900FEF72AFFB0F5403FC9D0889800F074F97B
S11319100028D5D0FFF7A9FF00F0D8FC0028CFD1CC
S1131920BDE7282212680A9992689142CCD9889816
S113193000F080F90028B2D0FFF797FF129900F069
S11319408BFCACE7000003434FF488207047FFF79B
S113195091BF0000004870474CE3070000487047FF
S11319606CE307000048704786E2070031B10A4B78
S11319705A68824205D80023C1E9003340F201408D
S11319807047013053F8302003EBC0035B680A60F2
S11319904B600020704700BF2031000001221A7004
S11319A07047000070B40D4C0E46114662688242C6
S11319B00DD9013004EBC0025268F51895420AD8DB
S11319C054F830001A46304470BCFEF72BBF40F286
S11319D0014070BC704740F20240FAE72031000039
S11319E030B504460D46A3B002AAD0F804128023F1
S11319F0D0F8FC01FFF7D6FF0095802302AA214608
S1131A0004F12C0000F05CFED4F80432C4F808029F
S1131A108033C4F8043223B030BD1FB50023CDE9B0
S1131A200033CDE90213D0F808320446A3B9D0F844
S1131A300422D0F800329A420ED26946FFF7D0FF52
S1131A40D4F8080298B141F2070240F2012390420F
S1131A5008BF184604B010BDA3785BB140F2022061
S1131A6040F20323E278002A18BF1846F2E740F256
S1131A700120EFE740F20220ECE7000070B50D46CC
S1131A80002186B006AB03F8111D02931E4B0446D9
S1131A901646116028461C22CDE90333059301F054
S1131AA0D9FA9DF8072062B994F87230142B08D043
S1131AB0D4F808322BB9D4F80412D4F8003299427D
S1131AC01AD32378990744BF636833602378DB070C
S1131AD009D504F1080304F1240153F8040B8B42E3
S1131AE045F8040BF9D162B9237840F20640002B83
S1131AF018BF002006B070BD02A92046FFF770FF92
S1131B00CFE70020F6E700BF9D19000070B40D4C2C
S1131B100E461146626882420DD9013004EBC002C0
S1131B205268F51895420AD854F830001A463044E1
S1131B3070BCFEF786BE40F2014070BC704740F2B4
S1131B400240FAE720310000074B5A68824207D965
S1131B50013003EBC002516853F83000FEF78ABE2F
S1131B6040F20140704700BF2031000010B5044628
S1131B7060B14FF480320023C0E90023044B1A788B
S1131B805B680272C360FEF737FE206110BD00BFC0
S1131B902031000037B50C4605461146204600F0BA
S1131BA0B1FB48B969462846FFF7E0FE20B9019B1E
S1131BB0C4F8FC51C4F8003203B030BD38B500F5A8
S1131BC0C87204460D46202300F5A4712C3000F0A1
S1131BD031FDD4F808322BB9D4F80422D4F80032F9
S1131BE09A4203D3A07800B1E07838BD2946204654
S1131BF0FFF7F6FEEDE7000000B5ADF5097D4FF403
S1131C00037205A9FFF7C6FF78B904238DF81530D0
S1131C10074BCDE90100039001A905A80493FFF740
S1131C20CDFF0DF5097D5DF804FB0020F9E700BF49
S1131C308B21000030B5ADF5097D0D460446FFF754
S1131C4011FE8368AB4203D300200DF5097D30BD3E
S1131C504FF4037205A92046FFF79CFF0028F3D137
S1131C6002238DF81530054BCDE90100039001A93D
S1131C7005A80493FFF7A2FFE7E700BF8B2100004C
S1131C8000B5ADF5097D4FF4037205A9FFF782FF96
S1131C9078B901238DF81530074B0190CDE9023056
S1131CA0049001A905A8FFF789FF0DF5097D5DF8EA
S1131CB004FB0020F9E700BF612100002DE9F04199
S1131CC09AB0502204460D4606A8002101F0C2F93C
S1131CD01422002101A801F0BDF901A8FFF746FF75
S1131CE0049B012B0ED800234FF0FF322360012305
S1131CF0AB4203D300201AB0BDE8F08144F823209E
S1131D000133F5E7AB426BD3FFF71EFE059B0C22B4
S1131D1006A90646DF68FEF785FD0028EBD1DFF84B
S1131D20CC80069B434516D1089A06A93046FEF797
S1131D3079FD4FF0FF32089906A8FEF763FA2A4BA3
S1131D40984233D04FF0FF3304EB8505A54213D0FE
S1131D5044F8043BFAE737440C2206A93846FEF758
S1131D6061FD0028C7D1069B43450BD04FF0FF33DC
S1131D7004EB8505A54202D140F20550BBE744F8C7
S1131D80043BF7E706A9089A3846FEF74BFD059B86
S1131D903046D968FEF76EFD0028ACD1089A06A932
S1131DA03046FEF74EFD0028BED0A4E7089BA3F101
S1131DB010029208AA4228BF2A460023934207D160
S1131DC04FF0FF32AB4295D244F823200133F9E7B8
S1131DD006A901EB8301C96844F823100133EDE738
S1131DE040F2045087E700BFE320BBDE39528FE1A5
S1131DF0F0B59BB00D4644220021074609A801F026
S1131E0029F901232F4A0021CDE906235023142266
S1131E1001A8089301F01EF901A8FFF7A7FE049B8F
S1131E20AB424BD3012B08D83B6840F2045001333A
S1131E30012B98BF00201BB0F0BDFFF785FD059B6B
S1131E40102DDC68064628BF102500230444AB424D
S1131E5026D14FF0FF32102B2AD14C214FF0FF3204
S1131E6006A8FEF7CFF9C043059B1990D968204610
S1131E70FEF700FD0028DED1502206A92046FEF719
S1131E80E0FC0028D7D1059B3046D968FEF7F2FC68
S1131E900028D0D1502206A93046FEF7D2FCCAE76A
S1131EA057F8231006AA02EB8302D1600133CEE770
S1131EB006A901EB8301CA600133CCE740F2045068
S1131EC0B9E700BF39528FE170B596B014220021F2
S1131ED0064601A801F0BEF801A8FFF747FE049CDE
S1131EE0012C1ED906AD21462846FFF7E7FE20B196
S1131EF040F2055398420DD1002055F820305A1C69
S1131F000AD116AB03EB800040F8406C214628460A
S1131F10FFF76EFF16B070BDB34205D001308442A6
S1131F20EBD140F20250F5E740F20350F2E7000033
S1131F3008B54FF4003141F26803044AD150FEF76A
S1131F409FFAB0FA80F0400908BD00BF008000404D
S1131F5038B540EA0204A4070CD16AB141F268031F
S1131F604FF40035054CE550FEF7ACFAB0FA80F0BA
S1131F70400938BD0020FCE70120FAE7008000405A
S1131F80F0B585B06C46024626460D4B03F11007AA
S1131F90254618685968083303C5BB422C46F7D157
S1131FA004AB501E13F8011D10F8012F914204D107
S1131FB0B342F7D1012005B0F0BD0020FBE700BF1C
S1131FC048330000C0F30C032DE9F04105460F46E9
S1131FD016460BB9FFF7ACFF05F5005424F4FF5483
S1131FE024F01F0405EB0608A04506D832463946FE
S1131FF02846BDE8F041FFF7ABBF2046FFF798FF46
S113200004F50054F0E738B504460D46FFF7B8FF71
S113201040B16369012B08D1237C012B05D8A36946
S11320202B6038BD2C600120FBE70020F9E72DE987
S1132030F0479EB0446B0646FFF714FC82462046E8
S1132040FFF79EFF18B900201EB0BDE8F087237C7F
S1132050012BF8D83427D7F800804046FFF790FFCB
S11320600028F0D0B8F5C04FEDD8FFF7F3FB0028F7
S113207035D14FF0000902A92046FFF7C4FF00281C
S1132080E1D0029BDAF810209A42DCD8B342DAD3CA
S1132090B3F5002FD7D803A8FEF788F9029A314682
S11320A0921B03A8FEF798F903A8FEF797F9029D7F
S11320B0FFF7D0FB2035029E002849D0B9F1000F6C
S11320C043D0A36B03F12402009204332A46314621
S11320D003A8FEF7F3F8B0FA80F04009B4E72369E7
S11320E013F0FF0F2CD01B0A2AD0A56B45B33F6811
S11320F03846FFF745FF81460028A4D0B7F5C04F06
S1132100A1D8BB6B5A6C6B6C9A429CD803A8FEF79F
S11321104DF94822294603A8FEF75EF903A8FEF705
S11321205DF9BB6B05F1480103F12402009204330D
S113213005F1680203A8FEF7C1F800289BD082E7E6
S1132140FFF78AFB002894D07DE7D8F83830B9E748
S1132150FFF700FC0446FFF701FC23460090B5E7B7
S113216070B504460E461546FFF77CFB0369A3428F
S11321700AD8426963199A4206D32A463146204650
S1132180BDE87040FFF71EBF70BD2DE9F041154654
S113219007468846FFF766FB0646FFF766FBC41949
S11321A06319B3F5002F0FD83FB9FFF75EFB7369CE
S11321B0834202D93069FFF7BBFE2A4641462046D6
S11321C0BDE8F041FFF7FEBEBDE8F081F8B5D0E907
S11321D0006706F160460446456BFFF743FBB6F51E
S11321E0004F01D90020F8BD0369BB42FAD8B7F506
S11321F0002FF7D84033AB4202D8B5F5002F05D9EC
S1132200FDF7FEFF80F00100C0B2ECE7FDF7F8FF38
S113221020B12046BDE8F840FFF709BF2846FFF784
S1132220AFFEA8B12B7C012BDCD86B69002BDAD074
S1132230022BEED1AB69C4F1040119444FF0FF3213
S11322402046FDF7DFFF034BC31A58425841CAE743
S11322500120C8E7E320BBDE70B54FF0FF3288B041
S113226006460D46FDF7CEFF0E4B984217D140F2BD
S1132270022000F07DF81C22002101A800F0EAFEF3
S1132280094B08AC44F8203D31462046FEF750F98E
S113229020462946FEF74CF92046FEF753F9002064
S11322A008B070BDE320BBDE0100064313B504464D
S11322B001A8FEF7F3F930B90198A0422CBF002021
S11322C0012002B010BD0020FBE7000030B5054638
S11322D089B040F2022000F04BF81C22002101A832
S11322E000F0B8FE064B08AC44F8203D29462046D1
S11322F0FEF71EF92046FEF725F9002009B030BD8F
S113230000000343B1F5037F10B5044610D34FF426
S11323100372002100F09EFE002304F5C87263706E
S113232004F5A47104F12C00BDE8104000F082B95A
S113233040F2052010BD13B50446009101462C302F
S113234000F0BEF9C4F8080218B141F2070398423C
S113235009D1A3784BB140F2032040F20223E27882
S1132360002A08BF184602B010BD40F20120FAE767
S11323704FF000534FF20F0218805A8070474FF00D
S113238000534CF23C325A80704700004FF0005327
S11323904FF20F0218805A80BFF34F8F0549064B46
S11323A0CA6802F4E0621343CB60BFF34F8F00BFEF
S11323B0FDE700BF00ED00E00400FA054FF0005314
S11323C04FF20F015A888A4201D1188870473AB9EE
S11323D01B8840F20220012B18BF4FF40070704795
S11323E04FF40070704770B5D1E90152AA4205D28A
S11323F090F840302B449B1A402B10D9002012E057
S11324000A6890F84040D65C90F841200133224499
S113241002F03F02013486548B6080F840408B68A0
S11324209D42EDD8012070BD2DE9F8431746D1E94E
S11324300125521B90F8405004462A4493420E460C
S11324409DF820909DF8248057D9FFF7CCFF0028F1
S11324505DD1152341F2020084F84630BDE8F883CB
S113246094F84120A25C7A5594F841200135013258
S113247002F03F0284F8412094F84020013A84F8A5
S1132480402094F8402012B1AB42E9D11D46D6E970
S113249001128A4201D2AB4231D8AB42D9D1D4F82D
S11324A0882029463846FDF7ADFEC4F88800B9F106
S11324B0000F04D02A463946E06CFDF78DFFB8F1D1
S11324C0000F08D094F843302BB12B463A463946D6
S11324D0A06CFDF7E1FE94F8433043B1E36DA26DC7
S11324E02B449342E36524BF002384F84330636D97
S11324F041F203001D446565B0E70025C1E731687A
S11325008A5C7A55B26801350132B260BFE70020B7
S1132510A4E700007FB50023CDE900330823154666
S11325200DEB03020446FFF77FFF41F203039842D9
S1132530064626D194F8433063B10822E06C0DEBD3
S11325400201FDF749FF08230DEB03021146A06CBD
S1132550FDF7A2FE039A029B6A6094F843202B6065
S11325605AB9094A934208D0084A934205D008222E
S1132570E06C0DEB0201FDF72FFF6B682365002370
S11325806365304604B070BDF70A0AF7FC0404FC26
S11325902DE9F843044658680D4616461F460028A0
S11325A043D08B0743D1FFF759F9216E00F1040C96
S11325B006EB0109CC451DD800F11C02914219D249
S11325C08C45634638BF0B46914594BFC3EB09095C
S11325D0C3EB0209591AA3EB0C0005EB01086830A0
S11325E04A464146204400F02AFD4A46FF2140461F
S11325F000F030FDFFF739F9226E031D93420AD330
S1132600B1180830814206D39B1AEA58C4F88020D6
S11326104FF0FF32EA50D7E900383246206E29469F
S1132620C0470020236E1E442666BDE8F88341F2AD
S11326300200FAE72DE9F04100254FF0FF37044688
S11326408846164603F0200380F8423080F846504E
S1132650A0F8405080F8435080F8455080F844502A
S1132660C0F88870C0E918551822FF21683000F0BE
S1132670F1FCC4F88070C4F88470C4E9128688221E
S1132680294604F1900000F0E5FC84F81851FFF7A6
S1132690DFF830B1B8F1000F03D141F20B00BDE80F
S11326A0F081FFF7D3F830B1002EF6D0E06CFDF7DF
S11326B07DFE0020F3E7002EF8D13046EFE700005E
S11326C02DE9F04FB7B0CDE908233422039300235A
S11326D0D2F800A00446BAF5C04F8846409E0A933B
S11326E000F2D98099460A9A039B9A425BD294F8E5
S11326F04630152BF8D8DFE813F08B00A0008400D7
S1132700CB0058003F0036003C023F0036023F0039
S113271005023F0036020D034F04160076037A03C8
S11327200C04A2024F040027636D0F2B6ED8012501
S11327301023019700950BAA08A92046FFF774FE01
S113274041F20303984240F0A880D4F848B0FFF760
S113275009F980230CAACDE9000302212B4658462F
S1132760FDF76CFDE0E70125D4E914329A42C0F08C
S11327705F8184F84650B6E70DF12C0BD4E914526E
S1132780AA420A9942D2099BAD1A94F840205B1AD6
S1132790032D134440F2F181032B00F2158208A9A2
S11327A02046FFF720FE002077E00125636D072B0C
S11327B099D80823CDE900550BAA08A92046FFF7AC
S11327C033FE41F20303984267D198F8003043F096
S11327D0020388F800300B9BC8F80430236D083BD3
S11327E0C8F824300C9B0593002B51D1052284F8A2
S11327F0462094F84520636642F0010284F845209F
S1132800D4E70025636D072B40F2DB80012311E040
S113281006AA08A92046FFF77DFE41F20303984269
S11328203BD1079B069A236500236365B74B9A4205
S11328302ED1022384F8463055E706AA08A920467B
S1132840FFF768FE41F20303984226D194F844202E
S1132850069B22B1AE4A93421AD10E23EAE794F8BA
S11328604220D50756D594F84320002A40F0978398
S1132870A84A934248D01BD8A74A934200F09580B7
S11328800ED8A24A934203D002F1B64293421AD11F
S1132890152384F8463041F2010037B0BDE8F08FCB
S11328A09E4A9342F4D09E4A9342F1D09D4AEDE76A
S11328B09D4A93421ED00FD89C4A934200F09183C4
S11328C09B4A934218D0152306A884F84630FEF795
S11328D0B9FF0028DFD11AE0964A9342D8D0964A2D
S11328E09342D5D08A4A9342EDD1FEF7AFFF002838
S11328F0B3D0CDE710239DE7112384F84630236D30
S1132900A3650023E365EEE6152384F8463041F21F
S11329100800C2E7824A934233D000F254837E4ACD
S113292093423DD000F2458302F1D74202F5D8121A
S113293002F6F832934220D006A8FEF783FFB0B324
S11329401423069884F84630C4F88C00FEF77CFF04
S113295094F84230814698067FF5C5AEB9F1000F70
S11329603FF4C1AED9F80430002B3FF4BCAE20468E
S1132970984700283FF4B7AE8DE70B235AE70623A8
S113298058E7072356E70D2354E7FEF75FFF0028B7
S11329907FF47EAF94F84330002B3FF45EAF77E7CB
S11329A094F84330002B7FF473AF122342E71523CE
S11329B084F8463094F84330002BA8D041F2040048
S11329C06BE70123019500930BAA082308A920466D
S11329D0FFF72AFD41F2030398427FF45EAF0B9B9D
S11329E003F07F43B3F1407F05D0152341F2090082
S11329F084F8463051E70C9BD90705930ED594F81B
S1132A00423043F0010384F84230FEF71FFF0028F0
S1132A103FF4F8AE059BDA0504D5F3E6FEF718FF9C
S1132A200028F2D0152341F20A0084F8463034E736
S1132A30CDE900550BAA08A92046FFF7F5FC41F2A1
S1132A40030398427FF429AF08F1080C63460BAFE7
S1132A500DF1440E3A4603CA724518605960174690
S1132A6003F10803F6D11068186098F80030604646
S1132A7043F0010388F80030FEF7FAFE00287FF4E3
S1132A8073AE152341F20C0084F8463005E70123A8
S1132A900DAACDE9003308A908232046FFF7C4FC9A
S1132AA041F2030398427FF4F8AE98F8003043F003
S1132AB0040388F800300E9BC8F8283098F80130D9
S1132AC05B071CD500201D4B60660B93236DC4F877
S1132AD0843094F8453043F0020384F84530F568B7
S1132AE06DB1336804220BA9A8470822606E3368CD
S1132AF0F5680DA91044A847636E103363660C2370
S1132B0084F84630636D072BC1D9ECE5EB17A603B7
S1132B10FC0404FCF70909F7F30B0BF3F50909F5B9
S1132B20F60808F6F40A0AF4FA0606FAF70A0AF7A7
S1132B30F90707F9FD0303FDFE0101FEEB17A65E8D
S1132B400423CDE900550BAA08A92046FFF76CFC25
S1132B5041F2030398427FF4A0AE226D0B9B042A3A
S1132B60059301D923660125636D032BE8D90A2354
S1132B7060E60023636608235CE69D423FF60FAEE1
S1132B809D4228BF1D460123032D88BF25F0030560
S1132B90CDE900335A462B4608A92046FFF744FCEA
S1132BA041F2030398427FF478AE94F84630082B40
S1132BB013D1B7688FB133682A465946606EB84757
S1132BC0636E1D446566D9E5402D28BF4025D7E7CF
S1132BD04FF0FF320BF805200135032DF8D90A2BED
S1132BE006D133462A4659462046FFF7D1FCC5E5AF
S1132BF0052B18D198F801309F077FF5BFADF36816
S1132C00002B3FF4BBAD626E042A0AD85319062B7D
S1132C1007D90CAB9B1A1A68C4F884204FF0FF3212
S1132C201A60F768C7E70C2B7FF4A8AD98F8013059
S1132C3058077FF5A3ADF768002FBCD19EE594F843
S1132C404230990607D5D4F88C00FEF7FDFD814685
S1132C5000283FF420AE01273FE0002B58D0B9F103
S1132C60000F55D0D9F81030002B51D0204698478A
S1132C70DDE90953ED1A94F840302B4498423FF6AD
S1132C808EADD4E91452AD1A402D28BF40259D4283
S1132C9028BF1D46CDE900772B460BAA08A920467C
S1132CA0FFF7C2FB41F2030398427FF4F6AD94F8B8
S1132CB042309A0611D5B9F1000F3FF4ECADD9F8C2
S1132CC008B0BBF1000F3FF4E6AD33462A460BA92A
S1132CD02046D84700287FF4E0ADD4E9142194F8C5
S1132CE04230914203F02003B7D3002B3FF48EAD62
S1132CF0B9F1000F3FF48AADD9F80C30002B3FF442
S1132D0085AD31462046984700283FF47FADC4E5A1
S1132D100120ADE700230BAACDE9003308A9042361
S1132D202046FFF781FB41F2030398427FF4B5ADDF
S1132D30D4F88820B14B9A4205D0152341F20500FE
S1132D4084F84630A9E5FEF781FD10B9012388F81F
S1132D50033098F80330002B3ED094F845309B079D
S1132D6007D0F5682DB10422336804F184011046BC
S1132D70A847236E83B3736873B34FF0FF3336AF42
S1132D8047F8C43D04F1800904224946384600F05E
S1132D9047F940B1FEF769FD28B1D6E900350422B0
S1132DA049461044A84704F16805042229463846D8
S1132DB000F036F980B17768FEF750FD33681422CD
S1132DC004F16C010830B8477768FEF747FD042228
S1132DD0336829461044B847012388F802300F238A
S1132DE084F84630DFE4012384F8433022E594F884
S1132DF01831002B7FF477AC626D0193032A10D84D
S1132E0001230BAA009308A904232046FFF70CFB17
S1132E1041F2030398427FF440AD0B9BC4F8903019
S1132E2061E4432A1AD801230BAA009308A940237A
S1132E302046FFF7F9FA41F2030398427FF42DADDF
S1132E400BAD04F194021BAF2B4603CBBB421060C5
S1132E5051601D4602F10802F6D144E4472A4FF0BE
S1132E600102009217D804230BAA08A92046FFF7F1
S1132E70DBFA41F2030398427FF40FAD0B9BC4F8D5
S1132E80D430DAF83820002A3FF4FBAD526C9A4271
S1132E907FF629ACF5E540230BAA08A92046FFF7E5
S1132EA0C3FA41F2030398427FF4F7AC04F1D80C5F
S1132EB067460BAB1BAD1A4603CAAA42CCF8000006
S1132EC0CCF8041013460CF1080CF4D12846FDF795
S1132ED06DFA482204F190012846FDF77DFA284650
S1132EE0FDF77CFADAF83830394603F1240200920F
S1132EF0043304F1F8022846FDF7E0F928B115235C
S1132F0041F2060084F84630C7E4012384F81831FE
S1132F1090E494F84430002B7FF478ACCDE900338E
S1132F200BAA402308A92046FFF77EFA41F20303C7
S1132F3098427FF4B2ACE06CFDF750FA94F8183183
S1132F4073B104F1B403009304F19403E06C13AA85
S1132F500BA9FDF7B3F9C8B1002388F80330CEE715
S1132F60FEF778FC30B1DAF8383003F1240200922D
S1132F700433EBE7E56CFEF7EDFC0746FEF7EEFCE9
S1132F803B46009013AA0BA92846E2E7012388F8E0
S1132F90033084F8443039E441F207007DE4184AF0
S1132FA093423FF4EEAC0ED8164A93427FF4BAAC87
S1132FB06EE4154A93423FF4E2AC144A93427FF420
S1132FC0BBAC042336E4124A93423FF4DEAC0AD885
S1132FD0104A93427FF4B0AC94F84330002B7FF452
S1132FE057AC132326E40C4A93423FF4CCAC0B4A6F
S1132FF093427FF4A1AC09231CE400BFE320BBDEB1
S1133000F60808F6F30B0BF3F40A0AF4F50909F5CC
S1133010FC0404FCF70A0AF7FD0303FDFE0101FEAC
S113302030B50024A24201D1002007E0035D013441
S11330300D1915F8015CAB42F4D0581B30BD431E8A
S11330400A4410B5914200D110BD11F8014B03F8A8
S1133050014FF7E702440346934200D1704703F857
S1133060011BF9E7F8B500BFF8BC08BC9E467047E1
S1133070F8B500BFF8BC08BC9E46704700000000CD
S113308004F01FE52401002004F01FE528010020BE
S113309007B0CD5E0100000002000A0168330000A1
S11330A00060000000000800F7000100E9000000D3
S11330B0ED000000CD2100000523000037230000AF
S11330C00833000013B779FAC925DDB7ADF3CFE0B3
S11330D0F1B614B8010100000000000064330000E0
S11330E04000000002000A0100000000000000008F
S11330F000000000000000000000000000000000CC
S11331000000000001020300280000002800000065
S1133110002000000000080030310000040000001E
S113312001000000010000000040040000A00300B2
S11331304546523332000000000000000000000049
S113314000000040010000000B0000000F00000020
S1133150000100000002000000040000000800005C
S1133160001000000020000000400000008000006B
S1133170000001000000000001000000FFFFFFFF4D
S1133180000000010000000000000000000000003A
S1133190FFFFFFFFFFFFFFFFFFFFFFFFFFFFFFFF3B
S11331A000000000FFFFFFFFFFFFFFFFBCE6FAADDA
S11331B0A7179E84F3B9CAC2FC6325516B17D1F2D9
S11331C0E12C4247F8BCE6E563A440F277037D8135
S11331D02DEB33A0F4A13945D898C2964FE342E2CF
S11331E0FE1A7F9B8EE7EB4A7C0F9E162BCE33573D
S11331F06B315ECECBB6406837BF51F5FFFFFFFFA2
S113320000000001000000000000000000000000B9
S1133210FFFFFFFFFFFFFFFFFFFFFFFC5AC635D88C
S1133220AA3A93E7B3EBBD55769886BC651D06B004
S1133230CC53B0F63BCE3C3E27D2604B7C310000F1
S1133240C00000000000000000001000200000008A
S113325010141C2030402040404040808040101416
S1133260202040402067452301EFCDAB8998BADC8C
S1133270FE10325476C3D2E1F000000000000000DA
S11332800000000000C1059ED8367CD5073070DDF3
S113329017F70E5939FFC00B316858151164F98FAF
S11332A0A7BEFA4FA46A09E667BB67AE853C6EF316
S11332B072A54FF53A510E527F9B05688C1F83D936
S11332C0AB5BE0CD198000000000000000000000AE
S11332D000000000000000000000000000000000EA
S11332E000000000000000000000000000000000DA
S11332F000000000000000000000000000000000CA
S11333000000000000000000000100006D1B000030
S11333106D190000A51900000D1B0000491B0000D9
S1133320F11D0000BD1C0000C91E0000951B00001B
S11333301B1A00007D1A0000150800002508000073
S11333404308000075080000B814B6F1E0CFF3ADEF
S10F3350B7DD25C9FA79B71300000000AE
S10B335C6500000041000000BF
S90300A15B
